:020000040800F2
:1000000060060020650100086D0100086F0100080E
:1000100000000000000000000000000000000000E0
:100020000000000000000000000000007101000856
:1000300000000000000000007301000875010008C6
:100040007701000800000000770100087701000830
:1000500077010008770100087701000877010008A0
:100060000000000077010008770100087701000810
:100070007701000877010008770100080000000000
:100080007701000800000000000000007701000870
:1000900000000000770100087701000877010008E0
:1000A0007701000877010008770100087701000850
:1000B00077010008000000000000000000000000C0
:1000C00000F002F800F03EF812A030C808382418FA
:1000D0002D18AC4201D100F035F80FCCA246AB464A
:1000E0000CA730CF2D1B083F3F197C427F1E544484
:1000F0002D090426F441641EAC4201D300F022F81D
:100100000126334200D0FB1A3343984754465D46DC
:10011000DFE70000680D0000780D00007047000068
:100120000023002400250026103A01D378C1FBD813
:10013000520700D330C100D50B6070471FB51FBDFB
:1001400010B510BD00F02DF81146FFF7F7FF00F0D5
:1001500095FD00F045F803B4FFF7F2FF03BC00F093
:100160004BF800000748804707480047FEE7FEE7D6
:10017000FEE7FEE7FEE7FEE704480549054A064BB1
:1001800070470000510C0008C1000008600000200A
:100190006006002060020020600200207047704767
:1001A0007047754600F024F8AE4605006946534690
:1001B000C008C000854618B020B5FFF7DDFF60BC61
:1001C000B64600260027C0C5C0C5C0C5C0C5C0C54D
:1001D000C0C5C0C5C0C5403D490849008D467047EF
:1001E00010B50446C046C0462046FFF7B4FF10BD18
:1001F000004870470000002001491820ABBEFEE710
:100200002600020070470000F0B582B0052001070B
:1002100008682A4D284008600868294C204008607A
:1002200008680126F3051843086008687206104341
:100230000860244901910868F7020097B8430860F4
:1002400008683703B84308600099019800680843BC
:10025000019908600868384308601B49086828400D
:1002600008600868204008600868B70538430860DF
:10027000086836063043086014490868284008605A
:100280000868204008600868184308600868104340
:1002900008600F4908680F22130398430860086834
:1002A000120490430860086803225303184308604F
:1002B000086852041043086002B0F0BDFFFF3FFF22
:1002C000FFFFFFFC040000500C000050080000502D
:1002D0002400005081B00146684601700078012278
:1002E0008240034908681043086001B07047C04667
:1002F0003410024082B001A90870FFE7B1480068DD
:100300000004002801D5FFE7F8E7AF49009100207D
:10031000086008680122D3029843086008687823BF
:100320001843086008689302984308600868FF2330
:100330001B04984308600868530418430860086861
:100340005306984308600868184308600868520319
:1003500090430860086810430860FFE79948006808
:10036000800700280DD4FFE796480068C0060028E3
:1003700006D5FFE79649086810221043086029E077
:10038000ECE7924900200860FFE78E48006880078C
:1003900000280DD4FFE78B480068C006002806D56A
:1003A000FFE78B49086810221043086012E0ECE771
:1003B00001A8007885490860FFE782480068800648
:1003C000002801D4FFE7F8E781490868202210439C
:1003D0000860FFE702B0704782B001A90870FFE72C
:1003E000784800680004002801D5FFE7F8E776495F
:1003F00000910020086008680122D3029843086039
:1004000008687823184308600868930298430860D6
:100410000868FF231B0498430860086853041843C6
:100420000860086853069843086008681843086025
:100430000868520390430860086810430860FFE7AB
:1004400060480068800700280DD4FFE75D48006819
:10045000C006002806D5FFE75D4908681022104352
:10046000086029E0ECE7594940200860FFE755485B
:100470000068800700280DD4FFE752480068C006D6
:10048000002806D5FFE7524908681022104308608B
:1004900012E0ECE701A800784C490860FFE7494802
:1004A00000688006002801D4FFE7F8E7484908689B
:1004B000202210430860FFE702B0704783B002902B
:1004C000FFE7404800680004002801D5FFE7F8E78F
:1004D0003D4900910020086008680122D30298433A
:1004E00008600868782318430860086893029843F6
:1004F00008600868FF231B04984308600868072306
:100500001B0418430860086853069843086008688D
:100510001843086008685203904308600868104355
:100520000860FFE727480068800700280DD4FFE730
:1005300024480068C006002806D5FFE7244908685B
:100540001022104308603AE0ECE7204940200860A0
:1005500001A900200870FFE701A80078052820DC29
:10056000FFE7FFE717480068800700280DD4FFE782
:1005700014480068C006002806D5FFE7144908683B
:100580001022104308601AE0ECE7029801A90978EC
:10059000405C0E490860FFE70198401C01A9087003
:1005A000DAE7FFE7074800688006002801D4FFE784
:1005B000F8E707490868202210430860FFE703B006
:1005C0007047C04618580040045800402858004062
:1005D0001C58004070B51E4908680122904308600D
:1005E0001C4C20680F231D07A843206020680325AA
:1005F0002D072843206020681D05A843206020683F
:1006000095052843206020681D04A84320602068C9
:100610005504284320602068FF252E02B043206047
:100620002068C3263602304320602068A84320603B
:100630002068C72528432060086814032043086009
:1006400008681B029843086008681043086070BD82
:1006500000580040105800400349086801229205E4
:10066000104308607047C0463C10024080B582B01D
:10067000014601A801700078FFF73CFE02B080BD82
:1006800080B582B0014601A801700078FFF732FE04
:1006900002B080BD80B584B003A900200870FFE7D8
:1006A00003A80078072824DCFFE70398B030C0B225
:1006B00000F0ABFA00200190FFF71CFE1020FFF7BE
:1006C00019FE019802A90870FFE702A800787F28A8
:1006D00009DCFFE70020FFF77FFEFFE70298401CE0
:1006E00002A90870F1E7FFE70398401C03A908700E
:1006F000D6E704B080BD80B582B0014601A8017084
:100700000078FFF7F7FD02B080BD80B582B00190A0
:10071000FFE701980078002808D0FFE701980078EB
:1007200000F006F80198401C0190F2E702B080BD8D
:1007300080B582B0014601A8017000782038009091
:100740005A2800D9B6E10098810001A04058874698
:10075000AD0A0008B50A0008B50A0008B50A000885
:10076000B50A0008B50A0008B50A0008B50A00086D
:10077000B50A0008B50A0008B50A0008B50A00085D
:10078000B50A0008B50A0008B50A0008B50A00084D
:10079000BD080008C5080008CD080008D5080008F5
:1007A000DD080008E5080008ED080008F508000865
:1007B000FD08000805090008B50A0008B50A000888
:1007C000B50A0008B50A0008B50A0008B50A00080D
:1007D000B50A00080D090008150900081D090008E0
:1007E000250900082D090008350900083D09000801
:1007F000450900084D090008550900085D09000871
:10080000650900086D090008750900087D090008E0
:10081000850900088D090008950900089D09000850
:10082000A5090008AD090008B5090008BD090008C0
:10083000C5090008CD090008D5090008B50A000857
:10084000B50A0008B50A0008B50A0008B50A00088C
:10085000B50A0008DD090008E5090008ED090008EF
:10086000F5090008FD090008050A00080D0A00083E
:10087000150A00081D0A0008250A00082D0A0008AC
:10088000350A00083D0A0008450A00084D0A00081C
:10089000550A00085D0A0008650A00086D0A00088C
:1008A000750A00087D0A0008850A00088D0A0008FC
:1008B000950A00089D0A0008A50A0008BC48FFF731
:1008C000FDFDF7E0B948FFF7F9FDF3E0B648FFF7A3
:1008D000F5FDEFE0B348FFF7F1FDEBE0B048FFF7BF
:1008E000EDFDE7E0AD48FFF7E9FDE3E0AA48FFF7DB
:1008F000E5FDDFE0A748FFF7E1FDDBE0A448FFF7F7
:10090000DDFDD7E0A148FFF7D9FDD3E09E48FFF712
:10091000D5FDCFE09B48FFF7D1FDCBE09848FFF72E
:10092000CDFDC7E09548FFF7C9FDC3E09248FFF74A
:10093000C5FDBFE08F48FFF7C1FDBBE08C48FFF766
:10094000BDFDB7E08948FFF7B9FDB3E08648FFF782
:10095000B5FDAFE08348FFF7B1FDABE08048FFF79E
:10096000ADFDA7E07D48FFF7A9FDA3E07A48FFF7BA
:10097000A5FD9FE07748FFF7A1FD9BE07448FFF7D6
:100980009DFD97E07148FFF799FD93E06E48FFF7F2
:1009900095FD8FE06B48FFF791FD8BE06848FFF70E
:1009A0008DFD87E06548FFF789FD83E06248FFF72A
:1009B00085FD7FE05F48FFF781FD7BE05C48FFF746
:1009C0007DFD77E05948FFF779FD73E05648FFF762
:1009D00075FD6FE05348FFF771FD6BE05048FFF77E
:1009E0006DFD67E04D48FFF769FD63E04A48FFF79A
:1009F00065FD5FE04748FFF761FD5BE04448FFF7B6
:100A00005DFD57E04148FFF759FD53E03E48FFF7D1
:100A100055FD4FE03B48FFF751FD4BE03848FFF7ED
:100A20004DFD47E03548FFF749FD43E03248FFF709
:100A300045FD3FE02F48FFF741FD3BE02C48FFF725
:100A40003DFD37E02948FFF739FD33E02648FFF741
:100A500035FD2FE02348FFF731FD2BE02048FFF75D
:100A60002DFD27E01D48FFF729FD23E01A48FFF779
:100A700025FD1FE01748FFF721FD1BE01448FFF795
:100A80001DFD17E01148FFF719FD13E00E48FFF7B1
:100A900015FD0FE00B48FFF711FD0BE00848FFF7CD
:100AA0000DFD07E00548FFF709FD03E00248FFF7E9
:100AB00005FDFFE702B080BD3E0E0008680E00088D
:100AC000620E00085C0E0008560E0008500E00086A
:100AD0004A0E0008440E0008380E0008320E0008C6
:100AE0002C0E0008260E0008200E00081A0E000822
:100AF000140E00080E0E0008080E0008020E000872
:100B0000FC0D0008F60D0008F00D0008EA0D0008C5
:100B1000E40D0008DE0D0008D80D0008D20D000815
:100B2000CC0D0008C60D0008C00D0008BA0D000865
:100B3000B40D0008AE0D0008A80D0008A20D0008B5
:100B40009C0D0008960D0008900D00088A0D000805
:100B5000840D00087E0D0008780D0008720D000855
:100B60006C0D0008660D0008600D00085A0D0008A5
:100B7000540D00084E0D0008480D0008420D0008F5
:100B80003C0D0008360D0008300D00082A0D000845
:100B9000240D00081E0D0008180D0008120D000895
:100BA0000C0D0008060D0008000D0008FA0C0008E6
:100BB000F40C000880B586B005AA107004A8017076
:100BC0000078C10803A80170059902AA1170007885
:100BD000002818D4FFE703A80078072813DCFFE7F4
:100BE0000398B030C0B2FFF785FB02A801900078EF
:100BF0000F210840FFF77EFB0198007800091030B4
:100C0000FFF778FBFFE706B080BD80B582B00146F4
:100C100001A801700078FFF76DFB02B080BD0000F5
:100C2000094908680122120210430860FFE70648DC
:100C300000684005002801D4FFE7F8E70349086889
:100C400007229043086070470010024008100240DD
:100C5000704782B0019000200090FFE70098019A51
:100C60007D2149015143884205D2FFE7FFE7009803
:100C7000401C0090F2E702B07047000080B582B0DF
:100C8000002000900190FFF7CBFF0098FFF722FBB8
:100C9000FFF7BAFAFFF7E0FCFFF79CFC6420FFF7D0
:100CA000D8FFAE20FFF727FD8D20FFF724FD14208D
:100CB000FFF721FD2020FFF7D9FC0098FFF7E0FCAB
:100CC000A420FFF718FDA620FFF715FDFFF7E2FCB3
:100CD000AF20FFF710FD0A20FFF7BBFFFFE7002161
:100CE0000846FFF767FF0248FFF70FFDF7E7C0462A
:100CF0006E0E00083E5149453E0000427F40000014
:100D00004261514946002141454B31001814127F80
:100D100010002745454539003C4A494930000171DA
:100D200009050300364949493600064949291E008C
:100D30007E1111117E007F49494936003E414141F3
:100D400022007F4141221C007F49494941007F091F
:100D5000090901003E4149497A007F0808087F00DF
:100D600000417F4100002040413F01007F081422E4
:100D700041007F40404040007F0204027F007F042A
:100D800008107F003E4141413E007F0909090600ED
:100D90003E4151215E007F091929460046494949D3
:100DA000310001017F0101003F4040403F001F2012
:100DB00040201F007F2018207F0063140814630068
:100DC00003047804030061514945430020545454FE
:100DD00078007F4844443800384444442000384474
:100DE00044487F00385454541800087E090102001A
:100DF0000C5252523E007F080404780000447D40AB
:100E000000002040443D00007F10284400000041C5
:100E10007F4000007C04180478007C0804047800FB
:100E20003844444438007C1414140800081414187E
:100E30007C007C080404080048545454200000003E
:100E400000000000043F444020003C4040207C0063
:100E50001C2040201C003C4030403C00442810280E
:100E600044000C5050503C004464544C44004865CD
:100E70006C6C6F20576F726C640000008C0E000861
:0C0E8000000000206006000020010008B7
:04000005080000C12E
:00000001FF
