:020000040800F2
:1000000060060020650100086D0100086F0100080E
:1000100000000000000000000000000000000000E0
:100020000000000000000000000000007101000856
:1000300000000000000000007301000875010008C6
:100040007701000800000000770100087701000830
:1000500077010008770100087701000877010008A0
:100060000000000077010008770100087701000810
:100070007701000877010008770100080000000000
:100080007701000800000000000000007701000870
:1000900000000000770100087701000877010008E0
:1000A0007701000877010008770100087701000850
:1000B00077010008000000000000000000000000C0
:1000C00000F002F800F03EF812A030C808382418FA
:1000D0002D18AC4201D100F035F80FCCA246AB464A
:1000E0000CA730CF2D1B083F3F197C427F1E544484
:1000F0002D090426F441641EAC4201D300F022F81D
:100100000126334200D0FB1A3343984754465D46DC
:10011000DFE70000280B0000380B000070470000EC
:100120000023002400250026103A01D378C1FBD813
:10013000520700D330C100D50B6070471FB51FBDFB
:1001400010B510BD00F02DF81146FFF7F7FF00F0D5
:10015000BAFA00F045F803B4FFF7F2FF03BC00F071
:100160004BF800000748804707480047FEE7FEE7D6
:10017000FEE7FEE7FEE7FEE704480549054A064BB1
:10018000704700009D060008C100000860000020C4
:100190006006002060020020600200207047704767
:1001A0007047754600F024F8AE4605006946534690
:1001B000C008C000854618B020B5FFF7DDFF60BC61
:1001C000B64600260027C0C5C0C5C0C5C0C5C0C54D
:1001D000C0C5C0C5C0C5403D490849008D467047EF
:1001E00010B50446C046C0462046FFF7B4FF10BD18
:1001F000004870470000002001491820ABBEFEE710
:100200002600020070470000F0B582B0052001070B
:1002100008682A4D284008600868294C204008607A
:1002200008680126F3051843086008687206104341
:100230000860244901910868F7020097B8430860F4
:1002400008683703B84308600099019800680843BC
:10025000019908600868384308601B49086828400D
:1002600008600868204008600868B70538430860DF
:10027000086836063043086014490868284008605A
:100280000868204008600868184308600868104340
:1002900008600F4908680F22130398430860086834
:1002A000120490430860086803225303184308604F
:1002B000086852041043086002B0F0BDFFFF3FFF22
:1002C000FFFFFFFC040000500C000050080000502D
:1002D0002400005081B00146684601700078012278
:1002E0008240034908681043086001B07047C04667
:1002F0003410024082B001A90870FFE76F4800681F
:100300000004002801D5FFE7F8E76D4900910020BF
:10031000086008680122D3029843086008687823BF
:100320001843086008689302984308600868FF2330
:100330001B04984308600868530418430860086861
:100340005306984308600868184308600868520319
:1003500090430860086810430860FFE7574800684A
:10036000800700280DD4FFE754480068C006002825
:1003700006D5FFE75449086810221043086029E0B9
:10038000ECE7504900200860FFE74C480068800710
:1003900000280DD4FFE749480068C006002806D5AC
:1003A000FFE74949086810221043086012E0ECE7B3
:1003B00001A8007843490860FFE7404800688006CC
:1003C000002801D4FFE7F8E73F49086820221043DE
:1003D0000860FFE702B0704782B001A90870FFE72C
:1003E000364800680004002801D5FFE7F8E73449E3
:1003F00000910020086008680122D3029843086039
:1004000008687823184308600868930298430860D6
:100410000868FF231B0498430860086853041843C6
:100420000860086853069843086008681843086025
:100430000868520390430860086810430860FFE7AB
:100440001E480068800700280DD4FFE71B4800689D
:10045000C006002806D5FFE71B4908681022104394
:10046000086029E0ECE7174940200860FFE71348DF
:100470000068800700280DD4FFE710480068C00618
:10048000002806D5FFE710490868102210430860CD
:1004900012E0ECE701A800780A490860FFE7074886
:1004A00000688006002801D4FFE7F8E706490868DD
:1004B000202210430860FFE702B070471858004040
:1004C00004580040285800401C58004070B51E4990
:1004D00008680122904308601C4C20680F231D0708
:1004E000A8432060206803252D072843206020684A
:1004F0001D05A843206020689505284320602068DA
:100500001D04A8432060206855042843206020680B
:10051000FF252E02B04320602068C32636023043F8
:1005200020602068A84320602068C72528432060F9
:10053000086814032043086008681B029843086099
:1005400008681043086070BD005800401058004013
:100550000349086801229205104308607047C046AD
:100560003C10024080B582B0014601A801700078BD
:10057000FFF7C0FE02B080BD80B582B0014601A881
:1005800001700078FFF7B6FE02B080BD80B584B080
:1005900003A900200870FFE703A80078072824DCDF
:1005A000FFE70398B030C0B200F056F80020019089
:1005B000FFF7A0FE1020FFF79DFE019802A908702A
:1005C000FFE702A800787F2809DCFFE70020FFF79B
:1005D00003FFFFE70298401C02A90870F1E7FFE75C
:1005E0000398401C03A90870D6E704B080BD80B50D
:1005F00082B0014601A801700078FFF77BFE02B0CF
:1006000080BD80B586B005AA107004A8017000787E
:10061000C10803A80170059902AA1170007800288A
:1006200018D4FFE703A80078072813DCFFE7039836
:10063000B030C0B2FFF75EFE02A8019000780F2133
:100640000840FFF757FE0198007800091030FFF7C7
:1006500051FEFFE706B080BD80B582B0014601A81B
:1006600001700078FFF746FE02B080BD09490868B6
:100670000122120210430860FFE7064800684005A7
:10068000002801D4FFE7F8E70349086807229043F0
:10069000086070470010024008100240704782B0A6
:1006A000019000200090FFE70098019A7D21490108
:1006B0005143884205D2FFE7FFE70098401C0090B5
:1006C000F2E702B0704780B598B0002016901790FE
:1006D000FFF7CCFF1698FFF7FDFDFFF795FDFFF73D
:1006E00037FFFFF7F3FE6420FFF7D9FFAE20FFF7D7
:1006F0007EFF8D20FFF77BFF14201090FFF777FF20
:1007000020200D90FFF72EFF1698FFF735FFA4204D
:10071000FFF76DFFA620FFF76AFFFFF737FFAF2057
:10072000FFF765FF0A20FFF7BAFF16990846FFF7A3
:1007300068FF7E200290FFF74FFE11200190FFF727
:100740004BFE0198FFF748FE0198FFF745FE02981F
:10075000FFF742FE1698FFF73FFE1698FFF73CFEA4
:100760001698FFF739FE7F200E90FFF735FE4920DF
:100770001590FFF731FE1598FFF72EFE1598FFF73D
:100780002BFE3620FFF728FE1698FFF725FE169859
:10079000FFF722FE1698FFF71FFE3E200590FFF799
:1007A0001BFE41200690FFF717FE0698FFF714FE88
:1007B0000698FFF711FE22200390FFF70DFE169812
:1007C000FFF70AFE1698FFF707FE1698FFF704FEDC
:1007D0000E98FFF701FE0698FFF7FEFD0698FFF75B
:1007E000FBFD0398FFF7F8FD1C20FFF7F5FD1698B9
:1007F000FFF7F2FD1698FFF7EFFD1698FFF7ECFDF7
:100800000E98FFF7E9FD1598FFF7E6FD1598FFF73D
:10081000E3FD1598FFF7E0FD0698FFF7DDFD16985C
:10082000FFF7DAFD1698FFF7D7FD1698FFF7D4FD0E
:100830000E98FFF7D1FD09200790FFF7CDFD07982F
:10084000FFF7CAFD0798FFF7C7FD01200990FFF7E2
:10085000C3FD1698FFF7C0FD1698FFF7BDFD16986B
:10086000FFF7BAFD0598FFF7B7FD0698FFF7B4FD4F
:100870001598FFF7B1FD1598FFF7AEFD7A20FFF749
:10088000ABFD1698FFF7A8FD1698FFF7A5FD169883
:10089000FFF7A2FD0E98FFF79FFD08200F90FFF7CE
:1008A0009BFD0F98FFF798FD0F98FFF795FD0E98A9
:1008B000FFF792FD1698FFF78FFD1698FFF78CFD56
:1008C0001698FFF789FD0698FFF786FD0698FFF753
:1008D00083FD0E98FFF780FD0698FFF77DFD0698D3
:1008E000FFF77AFD1698FFF777FD1698FFF774FD6E
:1008F0001698FFF771FD0D98FFF76EFD40200B90E5
:10090000FFF76AFD0698FFF767FD3F200A90FFF7A3
:1009100063FD0998FFF760FD1698FFF75DFD1698D7
:10092000FFF75AFD1698FFF757FD0E98FFF754FD95
:100930000F98FFF751FD1098FFF74EFD0398FFF752
:100940004BFD0698FFF748FD1698FFF745FD1698F2
:10095000FFF742FD1698FFF73FFD0E98FFF73CFDAD
:100960000B98FFF739FD0B98FFF736FD0B98FFF753
:1009700033FD0B98FFF730FD1698FFF72DFD169805
:10098000FFF72AFD1698FFF727FD0E98FFF724FDC5
:1009900002200490FFF720FD04201290FFF71CFDB9
:1009A0000498FFF719FD0E98FFF716FD1698FFF74C
:1009B00013FD1698FFF710FD1698FFF70DFD0E9822
:1009C000FFF70AFD1298FFF707FD0F98FFF704FDE8
:1009D0001020FFF701FD0E98FFF7FEFC1698FFF7B9
:1009E000FBFC1698FFF7F8FC1698FFF7F5FC059846
:1009F000FFF7F2FC0698FFF7EFFC0698FFF7ECFC18
:100A00000698FFF7E9FC0598FFF7E6FC1698FFF754
:100A1000E3FC1698FFF7E0FC1698FFF7DDFC0E9854
:100A2000FFF7DAFC0798FFF7D7FC0798FFF7D4FC2D
:100A30000798FFF7D1FC0620FFF7CEFC1698FFF7CA
:100A4000CBFC1698FFF7C8FC1698FFF7C5FC059875
:100A5000FFF7C2FC0698FFF7BFFC51201490FFF788
:100A6000BBFC2120FFF7B8FC5E20FFF7B5FC169811
:100A7000FFF7B2FC1698FFF7AFFC1698FFF7ACFC37
:100A80000E98FFF7A9FC0798FFF7A6FC1920FFF7BF
:100A9000A3FC2920FFF7A0FC46200890FFF79CFC50
:100AA0001698FFF799FC1698FFF796FC1698FFF733
:100AB00093FC0898FFF790FC1598FFF78DFC1598AC
:100AC000FFF78AFC1598FFF787FC3120FFF784FCBD
:100AD0001698FFF781FC1698FFF77EFC1698FFF733
:100AE0007BFC0998FFF778FC0998FFF775FC0E98D6
:100AF000FFF772FC0998FFF76FFC0998FFF76CFC91
:100B00001698FFF769FC1698FFF766FC1698FFF732
:100B100063FC0A98FFF760FC0B98FFF75DFC0B98ED
:100B2000FFF75AFC0B98FFF757FC0A98FFF754FCA5
:100B30001698FFF751FC1698FFF74EFC1698FFF732
:100B40004BFC1F200C90FFF747FC0D98FFF744FC6F
:100B50000B98FFF741FC0D98FFF73EFC0C98FFF750
:100B60003BFC1698FFF738FC1698FFF735FC1698F3
:100B7000FFF732FC0E98FFF72FFC0D98FFF72CFCC7
:100B80001820FFF729FC0D98FFF726FC0E98FFF7B9
:100B900023FC1698FFF720FC1698FFF71DFC16980B
:100BA000FFF71AFC63201190FFF716FC1098FFF76F
:100BB00013FC0F98FFF710FC1098FFF70DFC11982D
:100BC000FFF70AFC1698FFF707FC1698FFF704FCDE
:100BD0001698FFF701FC03201390FFF7FDFB129816
:100BE000FFF7FAFB7820FFF7F7FB1298FFF7F4FB0B
:100BF0001398FFF7F1FB1698FFF7EEFB1698FFF737
:100C0000EBFB1698FFF7E8FB6120FFF7E5FB149874
:100C1000FFF7E2FB1598FFF7DFFB4520FFF7DCFB52
:100C20004320FFF7D9FB1698FFF7D6FB1698FFF77E
:100C3000D3FB1698FFF7D0FBFFE7FEE74C0C00084C
:0C0C4000000000206006000020010008F9
:04000005080000C12E
:00000001FF
