:020000040800F2
:1000000060060020650100086D0100086F0100080E
:1000100000000000000000000000000000000000E0
:100020000000000000000000000000007101000856
:1000300000000000000000007301000875010008C6
:100040007701000800000000770100087701000830
:1000500077010008770100087701000877010008A0
:100060000000000077010008770100087701000810
:100070007701000877010008770100080000000000
:100080007701000800000000000000007701000870
:1000900000000000770100087701000877010008E0
:1000A0007701000877010008770100087701000850
:1000B00077010008000000000000000000000000C0
:1000C00000F002F800F03EF812A030C808382418FA
:1000D0002D18AC4201D100F035F80FCCA246AB464A
:1000E0000CA730CF2D1B083F3F197C427F1E544484
:1000F0002D090426F441641EAC4201D300F022F81D
:100100000126334200D0FB1A3343984754465D46DC
:10011000DFE70000DC050000EC0500007047000090
:100120000023002400250026103A01D378C1FBD813
:10013000520700D330C100D50B6070471FB51FBDFB
:1001400010B510BD00F02DF81146FFF7F7FF00F0D5
:1001500092FA00F045F803B4FFF7F2FF03BC00F099
:100160004BF800000748804707480047FEE7FEE7D6
:10017000FEE7FEE7FEE7FEE704480549054A064BB1
:10018000704700004D060008C10000086000002014
:100190006006002060020020600200207047704767
:1001A0007047754600F024F8AE4605006946534690
:1001B000C008C000854618B020B5FFF7DDFF60BC61
:1001C000B64600260027C0C5C0C5C0C5C0C5C0C54D
:1001D000C0C5C0C5C0C5403D490849008D467047EF
:1001E00010B50446C046C0462046FFF7B4FF10BD18
:1001F000004870470000002001491820ABBEFEE710
:100200002600020070470000F0B582B0052001070B
:1002100008682A4D284008600868294C204008607A
:1002200008680126F3051843086008687206104341
:100230000860244901910868F7020097B8430860F4
:1002400008683703B84308600099019800680843BC
:10025000019908600868384308601B49086828400D
:1002600008600868204008600868B70538430860DF
:10027000086836063043086014490868284008605A
:100280000868204008600868184308600868104340
:1002900008600F4908680F22130398430860086834
:1002A000120490430860086803225303184308604F
:1002B000086852041043086002B0F0BDFFFF3FFF22
:1002C000FFFFFFFC040000500C000050080000502D
:1002D0002400005081B00146684601700078012278
:1002E0008240034908681043086001B07047C04667
:1002F0003410024082B001A90870FFE75B48006833
:100300000004002801D5FFE7F8E7594900910020D3
:10031000086008680122D3029843086008687823BF
:100320001843086008689302984308600868FF2330
:100330001B04984308600868530418430860086861
:10034000520390430860086810430860FFE747487D
:1003500000688007002801D4FFE7F8E7454900203E
:100360000860FFE7414800688007002801D4FFE7E4
:10037000F8E701A800783F490860FFE73B480068BC
:100380004006002801D4FFE7F8E739490868012250
:10039000920310430860FFE7344800688006002895
:1003A00001D4FFE7F8E734492020086002B0704725
:1003B00082B001A90870FFE72C48006800040028FB
:1003C00001D5FFE7F8E72A49009100200860086896
:1003D0000122D30298430860086878231843086014
:1003E00008689302984308600868FF231B04984339
:1003F0000860086853041843086008685203904373
:100400000860086810430860FFE718480068800724
:10041000002801D4FFE7F8E7164940200860FFE70D
:10042000124800688007002801D4FFE7F8E701A818
:10043000007810490860FFE70C4800684006002873
:1004400001D4FFE7F8E70A49086801229203104344
:100450000860FFE7054800688006002801D4FFE730
:10046000F8E705492020086002B07047185800409E
:1004700004580040285800401C58004070B51E49E0
:1004800008680122904308601C4C20680F231D0758
:10049000A8432060206803252D072843206020689A
:1004A0001D05A8432060206895052843206020682A
:1004B0001D04A8432060206855042843206020685C
:1004C000FF252E02B04320602068C3263602304349
:1004D00020602068A84320602068C725284320604A
:1004E000086814032043086008681B0298430860EA
:1004F00008681043086070BD005800401058004064
:100500000349086801229205104308607047C046FD
:100510003C10024080B582B0014601A8017000780D
:10052000FFF7E8FE02B080BD80B582B0014601A8A9
:1005300001700078FFF7DEFE02B080BD80B584B0A8
:1005400003A900200870FFE703A80078072824DC2F
:10055000FFE70398B030C0B200F056F800200190D9
:10056000FFF7C8FE1020FFF7C5FE019802A908702A
:10057000FFE702A800787F2809DCFFE70020FFF7EB
:1005800017FFFFE70298401C02A90870F1E7FFE798
:100590000398401C03A90870D6E704B080BD80B55D
:1005A00082B0014601A801700078FFF7A3FE02B0F7
:1005B00080BD80B586B005AA107004A801700078CF
:1005C000C10803A80170059902AA117000780028DB
:1005D00018D4FFE703A80078072813DCFFE7039887
:1005E000B030C0B2FFF786FE02A8019000780F215C
:1005F0000840FFF77FFE0198007800091030FFF7F0
:1006000079FEFFE706B080BD80B582B0014601A843
:1006100001700078FFF76EFE02B080BD09490868DE
:100620000122120210430860FFE7064800684005F7
:10063000002801D4FFE7F8E7034908680722904340
:10064000086070470010024008100240704782B0F6
:10065000019000200090FFE70098019A7D21490158
:100660005143884205D2FFE7FFE70098401C009005
:10067000F2E702B0704780B582B000200090019090
:10068000FFF7CCFF0098FFF725FEFFF7BDFDFFF752
:1006900037FFFFF7F3FE6420FFF7D9FFAE20FFF727
:1006A0007EFF8D20FFF77BFF1420FFF778FF2020CF
:1006B000FFF730FF0098FFF737FFA420FFF76FFF29
:1006C000A620FFF76CFFFFF739FFAF20FFF767FFAA
:1006D0000A20FFF7BCFF00990846FFF76AFFFFE713
:1006E000FF20FFF765FE0A20FFF7B1FFF8E70000E3
:1006F000000700080000002060060000200100083C
:04000005080000C12E
:00000001FF
