:020000040800F2
:1000000060060020650100086D0100086F0100080E
:1000100000000000000000000000000000000000E0
:100020000000000000000000000000007101000856
:1000300000000000000000007301000875010008C6
:100040007701000800000000770100087701000830
:1000500077010008770100087701000877010008A0
:100060000000000077010008770100087701000810
:100070007701000877010008770100080000000000
:100080007701000800000000000000007701000870
:1000900000000000770100087701000877010008E0
:1000A0007701000877010008770100087701000850
:1000B00077010008000000000000000000000000C0
:1000C00000F002F800F03EF812A030C808382418FA
:1000D0002D18AC4201D100F035F80FCCA246AB464A
:1000E0000CA730CF2D1B083F3F197C427F1E544484
:1000F0002D090426F441641EAC4201D300F022F81D
:100100000126334200D0FB1A3343984754465D46DC
:10011000DFE70000800D0000900D00007047000038
:100120000023002400250026103A01D378C1FBD813
:10013000520700D330C100D50B6070471FB51FBDFB
:1001400010B510BD00F02DF81146FFF7F7FF00F0D5
:100150006BFB00F045F803B4FFF7F2FF03BC00F0BF
:100160004BF800000748804707480047FEE7FEE7D6
:10017000FEE7FEE7FEE7FEE704480549054A064BB1
:1001800070470000FD070008C10000086000002063
:100190006006002060020020600200207047704767
:1001A0007047754600F024F8AE4605006946534690
:1001B000C008C000854618B020B5FFF7DDFF60BC61
:1001C000B64600260027C0C5C0C5C0C5C0C5C0C54D
:1001D000C0C5C0C5C0C5403D490849008D467047EF
:1001E00010B50446C046C0462046FFF7B4FF10BD18
:1001F000004870470000002001491820ABBEFEE710
:100200002600020070470000F0B582B0052001070B
:1002100008682A4D284008600868294C204008607A
:1002200008680126F3051843086008687206104341
:100230000860244901910868F7020097B8430860F4
:1002400008683703B84308600099019800680843BC
:10025000019908600868384308601B49086828400D
:1002600008600868204008600868B70538430860DF
:10027000086836063043086014490868284008605A
:100280000868204008600868184308600868104340
:1002900008600F4908680F22130398430860086834
:1002A000120490430860086803225303184308604F
:1002B000086852041043086002B0F0BDFFFF3FFF22
:1002C000FFFFFFFC040000500C000050080000502D
:1002D0002400005081B00146684601700078012278
:1002E0008240034908681043086001B07047C04667
:1002F0003410024082B001A90870FFE7A5480068E9
:100300000004002801D5FFE7F8E7A3490091002089
:10031000086008680122D3029843086008687823BF
:100320001843086008689302984308600868FF2330
:100330001B04984308600868530418430860086861
:100340005306984308600868184308600868520319
:1003500090430860086810430860FFE78D48006814
:10036000800700280DD4FFE78A480068C0060028EF
:1003700006D5FFE78A49086810221043086029E083
:10038000ECE7864900200860FFE7824800688007A4
:1003900000280DD4FFE77F480068C006002806D576
:1003A000FFE77F49086810221043086012E0ECE77D
:1003B00001A8007879490860FFE776480068800660
:1003C000002801D4FFE7F8E77549086820221043A8
:1003D0000860FFE702B0704782B001A90870FFE72C
:1003E0006C4800680004002801D5FFE7F8E76A4977
:1003F00000910020086008680122D3029843086039
:1004000008687823184308600868930298430860D6
:100410000868FF231B0498430860086853041843C6
:100420000860086853069843086008681843086025
:100430000868520390430860086810430860FFE7AB
:1004400054480068800700280DD4FFE75148006831
:10045000C006002806D5FFE751490868102210435E
:10046000086029E0ECE74D4940200860FFE7494873
:100470000068800700280DD4FFE746480068C006E2
:10048000002806D5FFE74649086810221043086097
:1004900012E0ECE701A8007840490860FFE73D481A
:1004A00000688006002801D4FFE7F8E73C490868A7
:1004B000202210430860FFE702B0704784B0039029
:1004C00002A80170FFE7334800680004002801D546
:1004D000FFE7F8E730490091002008600868012232
:1004E000D3029843086008687823184308600868B6
:1004F0009302984308600868FF231B049843086030
:1005000002A8007800041304C318086818430860A0
:1005100008685306184308600868520310430860CF
:10052000FFE71C4800688007002801D4FFE7F8E7D0
:100530001A494020086001A900200870FFE701A8BF
:10054000007802A90978884214DAFFE7FFE711482A
:1005500000688007002801D4FFE7F8E7039801A9A5
:100560000978405C0D490860FFE70198401C01A92B
:100570000870E4E7FFE7074800688006002801D418
:10058000FFE7F8E70649086820221043086004B036
:100590007047C04618580040045800402858004092
:1005A0001C58004070B51E4908680122904308603D
:1005B0001C4C20680F231D07A843206020680325DA
:1005C0002D072843206020681D05A843206020686F
:1005D00095052843206020681D04A84320602068FA
:1005E0005504284320602068FF252E02B043206078
:1005F0002068C3263602304320602068A84320606C
:100600002068C72528432060086814032043086039
:1006100008681B029843086008681043086070BDB2
:100620000058004010580040034908680122920514
:10063000104308607047C0463C10024080B582B04D
:10064000014601A801700078FFF754FE02B080BD9A
:1006500080B582B0014601A801700078FFF74AFE1C
:1006600002B080BD80B584B003A900200870FFE708
:1006700003A80078072824DCFFE70398B030C0B255
:1006800000F09AF800200190FFF734FE1020FFF7E9
:1006900031FE019802A90870FFE702A800787F28C0
:1006A00009DCFFE70020FFF797FEFFE70298401CF8
:1006B00002A90870F1E7FFE70398401C03A908703E
:1006C000D6E704B080BDB0B58AB002910446029866
:1006D0000E99099408AC207007A8027006A8037050
:1006E00005A801700078C00804A9087003A90020BB
:1006F0000870FFE703A8007804A90978884224DA83
:10070000FFE7079803994018B030C0B2FFF7F2FD39
:1007100008A8019000780F210840FFF7EBFD019831
:10072000007800091030FFF7E5FD099803A90B7860
:1007300006A909780A465A438018FFF7BFFEFFE76B
:100740000398401C03A90870D4E70AB0B0BD80B577
:1007500082B0014601A801700078FFF7CBFD02B01E
:1007600080BD80B586B005AA107004A8017000781D
:10077000C10803A80170059902AA11700078002829
:1007800018D4FFE703A80078072813DCFFE70398D5
:10079000B030C0B2FFF7AEFD02A8019000780F2183
:1007A0000840FFF7A7FD0198007800091030FFF717
:1007B000A1FDFFE706B080BD80B582B0014601A86B
:1007C00001700078FFF796FD02B080BD0949086806
:1007D0000122120210430860FFE706480068400546
:1007E000002801D4FFE7F8E703490868072290438F
:1007F000086070470010024008100240704782B045
:10080000019000200090FFE70098019A7D214901A6
:100810005143884205D2FFE7FFE70098401C009053
:10082000F2E702B07047000080B586B00020049067
:100830000590FFF7CBFF0498FFF74CFDFFF7E4FCB2
:10084000FFF7F2FEFFF7AEFE6420FFF7D8FFAE2001
:10085000FFF77DFF8D20FFF77AFF1420FFF777FF6A
:100860002020FFF7EBFE0220FFF7F2FEA420FFF7A7
:100870006EFFA620FFF76BFFFFF7F4FEAF20FFF738
:1008800066FF0A20FFF7BBFFFFE700210291084641
:10089000FFF767FF029A2023039300933348114622
:1008A000FFF711FF02990846FFF75BFF029A039BCF
:1008B00000932F481146FFF706FF02990846FFF7FD
:1008C00050FF029A039B00932A481146FFF7FBFE54
:1008D00002990846FFF745FF029A039B00932648BA
:1008E0001146FFF7F0FE02990846FFF73AFF029A19
:1008F000039B009321481146FFF7E5FE0299084645
:10090000FFF72FFF029A039B00931D481146FFF744
:10091000DAFE02990846FFF724FF029A039B009330
:1009200018481146FFF7CFFE02990846FFF719FF56
:10093000029A039B009314481146FFF7C4FE0299E4
:100940000846FFF70EFF029A039B00930F481146DB
:10095000FFF7B9FE02990846FFF703FF029A039BCF
:1009600000930B481146FFF7AEFE8EE7940900088E
:10097000940A0008140B0008940B0008140C0008DB
:10098000940C0008140D0008940D0008140E0008C3
:10099000140A0008FFFFFFFFFFFFFFFFFFFFFFFF3D
:1009A000FFFFFF7F7FFFFFFFFFFFFFFFFFFFFFFF57
:1009B000FFFFFFFFFFFFFFFFFFFFFFFFFFFFFF1F27
:1009C0000F0F070F0F0F7FFFFFFFFFFFFFFFFFFF5F
:1009D000FFFFFFFFFFFFFFFFFFFFBF9F9F9F9F9E48
:1009E000C8C080A0A0202EB8B3B1B1CDC9E1F1F349
:1009F000F7FFFFFFFFFFFFFFFFFFFFFFFFFFFFFF0F
:100A0000FFFFFFFFFFFFFFFFFFFFFFFFFFFFFFFFF6
:100A1000FFFFFFFFFFFFFFFFFFFFFF3F3F3F793972
:100A200079F9FFFFFFFFFFFFFFFFFFFFFFFFFFFF62
:100A3000FFFFFFFFFFFFFFFFFFFFFF7860400000A9
:100A4000000113A7EFCF8F876727078F9FDFFFFF77
:100A5000FFFFFFFFFFFFFFFEFCFCFCFEFEFEFEFEB5
:100A6000FFFDFDFDFDFDFEFEFEFFFFFFFFFFFFFFA3
:100A7000FFFFFFFFFFFFFFFFFFFFFFFFFFFFFFFF86
:100A8000FFFFFFFFFFFFFFFFFFFFFFFFFFFFFFFF76
:100A9000FFFFFFFFFFFFFFFFFFFFFFFFFFFFFFFF66
:100AA000FFFF3F3FFFFFFFFFFFFFFFFFFFFFFFFFD6
:100AB000FFFFFFFFFFFFFFFFFFFFFFFFFF7F7F3F06
:100AC0003F7F7F3F7FFFFFFFFFFFFFFFFFFFFFFF36
:100AD000FFFFFFFFFFFFFFFFFF9F9F9F9C9890C0BE
:100AE000C080A0A02828B3B1B1DDC9E1F1F3F7FFC0
:100AF000FFFFFFFFFFFFFFFFFFFFFFFFFFFFFFFF06
:100B0000FFFFFFFFFFFFFFFFFFFFFFFFFFFFFFFFF5
:100B1000FFFFFFFFFFFFFFFFFFFFFFFFFFFFFFFFE5
:100B2000FF3F3FFFFFFFFFFFFFFFFFFFFFFFFFFF55
:100B3000FFFFFFFFFFFFFFFFFFFFFFFFFFFFFFFFC5
:100B4000FFFFFFFFFFFFFFFFFFFFFFFFFFFFFFFFB5
:100B5000FFFFFFFFFFFFFFFF9F9F9D999181C1C195
:100B600083A3A32333B3B1B1DDC9E1F1F3F7FFFFF1
:100B7000FFFFFFFFFFFFFFFFFFFFFFFFFFFFFFFF85
:100B8000FFFFFFFFFFFFFFFFFFFFFFFFFFFFFFFF75
:100B9000FFFFFFFFFFFFFFFFFFFFFFFFFFFFFFFF65
:100BA0007F3FFFFFFFFFFFFFFFFFFFFFFFFFFFFF95
:100BB000FFFFFFFFFFFFFFFFFFFFFFFFFFFFFFFF45
:100BC000FFFFFFFFFFFFFFFFFFFFFFFFFFFFFFFF35
:100BD000FFFFFFFFFFFFDFDFCFCFCFCFCFC78707FD
:100BE00003030303030131CDC9E1F1F3F7FFFFFF75
:100BF000FFFFFFFFFFFFFFFFFFFFFFFFFFFFFFFE06
:100C0000FCFCF8F8F0F0F0F0FFFFFFFFFFFFFFFF44
:100C1000FFFFFFFFFFFFFFFFFFFFFFFFFFFFFF7F64
:100C20003FFFFFFFFFFFFFFFFFFFFFFFFFFFFFFF94
:100C3000FFFFFFFFFFFFFFFFFFFFFF0F0F070F0784
:100C40001F3F7FFFFFFFFFFFFFFFFFFFFFFFFFFFD4
:100C5000FFFFFFFFFFFFFFBF9F9F9F9F9C88C0C0BC
:100C6000A0A0222CB9B3B1B1CDC9E1F1F3F7FFFFD8
:100C7000FFFFFFFFFFFFFFFFFFFFFFFFFFFFFFFF84
:100C8000FFFFFFFFFFFFFFFFFFFFFFFFFFFFFFFF74
:100C9000FFFFFFFFFFFFFFFFFFFFFFFFFFFF7F7F64
:100CA0003F7FFFF9FBFFFFFFFFFFFFFFFFFFFFFF9E
:100CB000FFFFFFFFFFFFFFFFFFFFFFFFFFFF706072
:100CC000400000010333A7CFCF8F876727078FDF4F
:100CD000DFFFFFFFFFFFFFFFFFFFFEFCFCFCFEFE50
:100CE000FEFEFEFFFDFDFDFDFFFEFEFEFFFFFFFF22
:100CF000FFFFFFFFFFFFFFFFFFFFFFFFFFFFFFFF04
:100D0000FFFFFFFFFFFFFFFFFFFFFFFFFFFFFFFFF3
:100D1000FFFFFFFFFFFFFFFFFFFFFFFFFFFFFFFFE3
:100D2000FFFFF9F9FFFFFFFFFFFFFFFFFFFFFFFFDF
:100D3000FFFFFFFFFFFFFFFFFFFFFFFF7B6141039F
:100D400001010303A7CF8F8F8FE727078F8FDFFF67
:100D5000FFFFFFFFFFFFFFFFFFFCFCFCFEFEFEFEB0
:100D6000FEFFFDFDFDFDFDFFFEFEFEFFFFFFFFFFA1
:100D7000FFFFFFFFFFFFFFFFFFFFFFFFFFFFFFFF83
:100D8000FFFFFFFFFFFFFFFFFFFFFFFFFFFFFFFF73
:100D9000FFFFFFFFFFFFFFFFFFFFFFFFFFFFFFFF63
:100DA000FFF9F9FFFFFFFFFFFFFFFFFFFFFFFFFF5F
:100DB000FFFFFFFFFFFFFFFFFFFFEF4F4F0F0F0F83
:100DC0000F1F1F9F9F8F8F87E727078F8FDFFFFFE3
:100DD000FFFFFFFFFFFFFFFFFCFCFCFEFEFEFEFE31
:100DE000FFFDFDFDFDFDFFFEFEFFFFFFFFFFFFFF1F
:100DF000FFFFFFFFFFFFFFFFFFFFFFFFFFFFFFFF03
:100E0000FFFFFFFFFFFFFFFFFFFFFFFFFFFFFFFFF2
:100E1000FFFFFFFFFFFFFFFFFFFFFFFFFFFFFFFFE2
:100E2000F9F9FFFFFFFFFFFFFFFFFFFFFFFFFFFFDE
:100E3000FFFFFFFFFFFF7F7F7F7F3F3F3F3F3F1F62
:100E40001F1F1F1F0F0F876727078F9FDFFFFFFFE2
:100E5000FFFFFFFFFFFFFEFEFEFEFFFFFFFFFEF8AE
:100E6000F8E0E0C0C080C0C0FFFFFFFFFFFFFFFF52
:100E7000FFFFFFFFFFFFFFFFFFFFFFFFFFFFFFFF82
:100E8000FFFFFFFFFFFFFFFFFFFFFFFFFFFFFFFF72
:100E9000FFFFFFFFA40E0008000000206006000016
:040EA0002001000825
:04000005080000C12E
:00000001FF
