:020000040800F2
:100000006006002061020008690200086B02000817
:1000100000000000000000000000000000000000E0
:100020000000000000000000000000006D02000859
:1000300000000000000000006F02000871020008CC
:100040007302000800000000730200087302000839
:1000500073020008730200087302000873020008AC
:100060000000000073020008730200087302000819
:100070007302000873020008730200080000000009
:100080007302000800000000000000007302000876
:1000900000000000730200087302000873020008E9
:1000A000730200087302000873020008730200085C
:1000B00073020008000000000000000000000000C3
:1000C00000F002F800F0BDF812A030C8083824187B
:1000D0002D18AC4201D100F0B4F80FCCA246AB46CB
:1000E0000CA730CF2D1B083F3F197C427F1E544484
:1000F0002D090426F441641EAC4201D300F0A1F89E
:100100000126334200D0FB1A3343984754465D46DC
:10011000DFE70000302400004024000070470000AA
:100120000023002400250026103A01D378C1FBD813
:10013000520700D330C100D50B60704710B56E294F
:1001400002D100F011FA10BD702902D100F04BFB72
:1001500010BD662902D102F047F810BD652902D111
:1001600002F042F810BD672902D102F03DF810BD3F
:10017000612902D102F040F810BD03681B0A01D3C7
:1001800080231943692902D100F0B8F910BD642910
:1001900002D100F0B3F910BD752902D100F0AEF91B
:1001A00010BD6F2902D100F0C9FA10BD782902D123
:1001B00000F006FB10BDE92902D100F065FA10BD80
:1001C000E42902D100F060FA10BDF52902D100F057
:1001D0005BFA10BDEF2902D100F0BCFA10BDF8297E
:1001E00002D100F0FBFA10BD0368DB0901D38023C4
:1001F0001943632902D100F0DEFF10BD732902D13B
:1002000000F0E1FF10BDE32902D100F0EBFF10BDCB
:10021000F32902D100F0EEFF10BD002010BD1FB584
:1002200001F048F804000020002101F0C7FF401C45
:1002300060600020002101F0ABFFE0601FBD10B541
:1002400010BD01F010F81146FFF7E9FF01F016FFAD
:1002500001F0A4FB03B4FFF7F2FF03BC01F0EEFBD7
:100260000748804707480047FEE7FEE7FEE7FEE74E
:10027000FEE7FEE704480549054A064B70470000C3
:1002800051200008C1000008600000206006002026
:1002900060020020600200200FB41CB5084B06AAC3
:1002A0007B4469460090059800F077F904460020E9
:1002B000694600F085F920461CBC08BC04B018470C
:1002C0001D030000002203098B422CD3030A8B423A
:1002D00011D300239C464EE003460B433CD400223E
:1002E00043088B4231D303098B421CD3030A8B4250
:1002F00001D394463FE0C3098B4201D3CB01C01A1E
:10030000524183098B4201D38B01C01A52414309E8
:100310008B4201D34B01C01A524103098B4201D3D6
:100320000B01C01A5241C3088B4201D3CB00C01A43
:10033000524183088B4201D38B00C01A52414308BB
:100340008B4201D34B00C01A5241411A00D20146E0
:100350005241104670475DE0CA0F00D04942031079
:1003600000D3404253409C46002203098B422DD3C8
:10037000030A8B4212D38901FC2212BA030A8B4270
:100380000CD3890192118B4208D3890192118B42BF
:1003900004D389013AD0921100E08909C3098B4244
:1003A00001D3CB01C01A524183098B4201D38B0187
:1003B000C01A524143098B4201D34B01C01A52412A
:1003C00003098B4201D30B01C01A5241C3088B426F
:1003D00001D3CB00C01A524183088B4201D38B005A
:1003E000C01A5241D9D243088B4201D34B00C01AE4
:1003F0005241411A00D201465241104663465B10F9
:1004000001D34042002B00D54942704763465B1040
:1004100000D3404201B50549002802DC491C0840D0
:1004200000E00846C046C04602BD00BFFFFFFF7F98
:1004300070477047704770B5044685690068C1060B
:1004400001D5302600E02026C00707D070BD6268C5
:100450003046A1689047206A401C20626D1EF6D588
:1004600070BD70B5044685690078C00707D170BDBE
:100470006268A16820209047206A401C20626D1E9F
:10048000F6D570BD09684A0501D540B27047C90567
:10049000FCD500B2704709684A0501D5C0B2704763
:1004A000C905FCD580B2704770B50C460546012AD7
:1004B00005D02878800600D5EA69002302E00123F0
:1004C00005E05B1C934202D2E05C0028F9D1A869E8
:1004D000E618C01AA861286AC01828622846FFF7E3
:1004E000AAFF04E06A682078A968641C9047B442B7
:1004F000F8D32846FFF7B5FF70BD0000F7B500251B
:1005000075291068009914A611D0FFF7BBFF0028C9
:1005100002DA404211A608E0009909688A0701D56D
:100520000FA602E0490704D50EA6012501E0FFF75A
:10053000B2FF009F0024243704E000F080FE303139
:100540003955641C0028F8D12B46324621460098C4
:1005500000F057FAFEBD0000000000002D00000072
:100560002B0000002000000011680268006A53059B
:1005700001D5087009E0D30501D5088005E0130610
:1005800002D5C21705C100E00860012070470000D5
:1005900001694A1C02610878704700B58FB002916A
:1005A0000021059105490193794403911146049076
:1005B000684600F025F90FB000BD0000E5FFFFFF21
:1005C0000A681070521C0A6070470000F7B50446B4
:1005D000154686B02B487844002703C83E46009055
:1005E000019111E007986A467100415A02A800F093
:1005F00005FE411C07D02178890603D5E269391828
:1006000091420ED83F18761C2078800602D5E0690A
:10061000B84206DDAE42E5DB07987100405A00287B
:10062000E0D1A069C01BA0612046FFF704FF154878
:1006300078445A3803C800900020019116E0410028
:100640006A460798415A02A800F0D8FD0590401C60
:100650000AD0002505E0626802A8A168405D9047C5
:100660006D1C05988542F6D30498401CB042049056
:10067000E5DB206AC01920622046FFF7F2FE09B0D0
:10068000F0BD00002E1C0000F7B5D21D0025D208D9
:1006900015A6D200F52905CA11D0002A05DA0021D5
:1006A0004042914111A60A4608E0009909688B076B
:1006B00001D50FA602E0490701D50EA60125114676
:1006C000009F0024243704E000F05EF930323A55F0
:1006D000641C02460A43F7D12B4632462146009855
:1006E00000F08FF9FEBD0000000000002D000000AA
:1006F0002B0000002000000070B5044600212434C7
:1007000008E05507D2086D0F303565545D072A4360
:10071000DB08491C15461D43F3D10468002310A2D1
:10072000250708D520252C400C4304D0C46901239B
:100730000CA2641EC46100F064F970BD10B50446DB
:1007400021461068FFF7A7FE002302462046FFF768
:10075000D3FF10BDD21DD108C9000CC9CCE70000E1
:100760000000000030000000F8B50F4601880905C0
:1007700002D5224C7C4402E0204C7C440E340546D9
:100780000021243508E016071209360FA65D6E54C5
:100790001E0732431B09491C16461E43F3D122464D
:1007A00004780023240705D5702F06D0002901D036
:1007B0000223113200F025F9F8BD01231032F9E7C8
:1007C00070B504460D4621461068FFF764FE00230D
:1007D000024629462046FFF7C7FF70BDD21DD30849
:1007E000DB000CCBC0E730B403682024126823433D
:1007F00003600823C36130BC0023B5E7981A0000EA
:10080000F3B50446002081B020622046E1688847A5
:10081000002872D0252802D06268A168ABE0594F49
:1008200000267F442046E16888472028054608DBEB
:10083000312D06D2781920380078002801D00643DF
:10084000F0E7B00701D5042086430020E0610746A9
:10085000A0612A2D0AD0284601F092FC002827D05A
:10086000B8000019303D0090856119E00298BA0087
:10087000121902C8916102902046E1688847012F51
:10088000054617D1E06900281FDA202086431CE0C6
:1008900000980A21806948430099401930388861DE
:1008A0002046E1688847054601F06AFC0028EFD140
:1008B000012F0AD02E2D08D12046E1688847054631
:1008C000202006437F1C022FC3DBA069002803DA27
:1008D0004042A06101200643F00701D0102086436A
:1008E0006C2D0BD0682D09D04C2D3CD06A2D38D002
:1008F000742D38D07A2D36D016E040E0E1682F46CE
:1009000020468847B842054609D16C2F29D00120DE
:100910008002E168064320468847054604E06C2FC4
:100920001DD0FF2001300643002D28D02846413835
:10093000192803D80120C00206432035204626602E
:100940002946029A1646FFF7F9FB002810D0012825
:100950000BD0F61DF008C0000830029055E740208B
:10096000E1E78020D5E70020D3E7361D02964CE76B
:1009700062682846A1689047206A401C44E7206AC4
:10098000FEBD0000121A00000B4670B50246890732
:100990008008084319469D08141AA941250908072B
:1009A000054308092C194841250A01060D43010A8F
:1009B0002C194141200C0D0428430D0C00194D4108
:1009C000002140194D41C00869070843E908840F18
:1009D0008D002543840024184D4124196D41121BBC
:1009E000AB4107E00925ED432C1152196341002466
:1009F000401C61411C460A250026551BB441F1D21A
:100A000070BDFFB504460D4681B0243000902168CA
:100A1000880604D51022E0699143216000E001209E
:100A2000A84201DD471B00E000270498A1697A195C
:100A30001018081AA0612078C00602D42046FFF7DB
:100A4000FAFC002608E003986268A168805D904780
:100A5000206A401C761C206204988642F3DB2078D2
:100A6000C0060AD52046FFF7E6FC06E06268A168EA
:100A700030209047206A401C206238467F1E0028A4
:100A8000F4DC07E000986268A168405D9047206A46
:100A9000401C206228466D1E0028F3DC2046FFF72C
:100AA000E0FC2078000602D5022005B0F0BD012050
:100AB000FBE70000FFB50C461E468FB003CA089046
:100AC00009914F007D0D00D16D1E002108460020C8
:100AD000C0460321099A89050840002A03DA8200EA
:100AE000801840080840800D01280A9002DD00208F
:100AF000C0430A90089807430DD0F048F0492818E1
:100B000048430714189800281DD07542291E1DDD82
:100B10000A9842421BE01898012802D00020302198
:100B200004E00020F24305E02154401CB042FBDB0E
:100B300030460022189B002121540F998B600A60D7
:100B4000486013B0F0BDBD1B6D1CDFE70A9A002999
:100B500000DA69420BA800F0F5FB0BAB07CB03AB47
:100B600007C30899099800F059FC6B4607C3014672
:100B7000D4480918002D00910BDDD24903980A9A38
:100B800049424018002303A90390684600F0B6FECE
:100B900008E003990A9A0023081803A903906846FD
:100BA00000F056FE6B4607C30004000C03D0002083
:100BB000C043410800E01046189A002A03D00022E2
:100BC000009215461EE0751E05D4FFF7DDFE30329B
:100BD00062556D1EF9D501220843079602D0002206
:100BE0007F1C04E02078302801D100227F1E002ADB
:100BF000069787D01EE0112D07DAFFF7C5FE3032C9
:100C000062556D1C02460A43F5D1084303D0009893
:100C1000002819D00EE00021681E05E0235C625C0C
:100C200063542254401E491C8142F7DBA81B401E1E
:100C300007950690079A18990020A0540F98079BD3
:100C4000069A81600CC07CE711260020189059E7B5
:100C5000D21DF0B50D460446D10893B0C90003C9B2
:100C60000C900D9101F076FA02460D98C00F01D05C
:100C70002D2007E02068810701D52B2002E04007E6
:100C8000C00F4001032A0F9001D0072A05DB03465D
:100C90002946204600F012FB0EE12078800601D59F
:100CA000E76900E006272846652D04D0662814D0A1
:100CB000672D69D12DE00020112F009001DB112359
:100CC00000E07B1C0CAA03A910A8FFF7F3FE119902
:100CD000002610987D1C0E9142E001203B460CAA94
:100CE000C0070B900120009003A910A8FFF7E2FEB7
:100CF000119D12981099002600280E9501D1781C9C
:100D00000D18781B02D446427D1C761EE81B00900D
:100D10003AE0012F00DA01270020112F009001DDB9
:100D2000112300E03B460CAA03A910A8FFF7C2FE5E
:100D300011993D46109800260E91217809070BD491
:100D40000E99A94200DA0D4603A9012D04DD4A19C6
:100D5000203AD27F302A06D0B84201DA011D04DAE7
:100D6000012100910FE06D1EEFE7002802DC8619DB
:100D70002D1A03E0411CA94200DD0D46801B401CDA
:100D800000900120C0070B902078000705D4009840
:100D9000A84202DB0020C043009069460020C872D0
:100DA0000B98012102AF0337C907884225D00220E2
:100DB00010902B2011900B9800280BDA40420B90DA
:100DC0002D20119006E00B9800F039FA30317F1E8B
:100DD0000B9039701099481E00291090F3DC0B9885
:100DE0000028F0D111987F1E38702088000501D5A9
:100DF000452000E065207F1E387001A8C01BC01D83
:100E00000B900F98002800D0012041190098C017BE
:100E100009180B980818A169081A401EA0612078CB
:100E2000C00602D42046FFF706FB0F98002805D025
:100E30006268A1689047206A401C20622078C00642
:100E400025D52046FFF7F7FA21E0002E07DB0E98A4
:100E5000B04204DD03A86268805DA16802E06268B8
:100E6000A16830209047206A761C401C20620098C0
:100E7000401E002800900AD100F01CFAC068626889
:100E80000168405CA1689047206A401C20622846A7
:100E90006D1E0028D9DC07E062683878A1687F1CE5
:100EA0009047206A401C20620B99481E00290B9035
:100EB000F2DC2046FFF7D5FA032042E601FCFFFFF3
:100EC000104D0000E1DFFFFFD21DF0B504460D46D6
:100ED000D0088DB0C000466807683146384601F03A
:100EE00039F90246F00F01D02D2307E02068810771
:100EF00001D52B2302E04007C00F43016846002BB9
:100F0000037001D0012000E00020032A0A9001D0E4
:100F1000072A04DB2946204600F0D0F92DE120788D
:100F2000800601D40D2500E0E5697000400D0D2D0F
:100F300001904BDA300D00210B9008460020C0468E
:100F4000032189050840002E05DA82008018C20FAF
:100F50001018401008408015012801DD0020C04312
:100F6000A9000023182906D39C460A460123183AF3
:100F70001B07D34003E001221205CA4094460C31FE
:100F8000202902D33A46203900E032468A40002820
:100F900002DD002A06D119E0002817D10121C90776
:100FA0008A4213D3194663467F185E41002806D152
:100FB0000120C007824202D1084687439E430B9816
:100FC000310D814202D00198401C0190208800051B
:100FD00002D57149794402E06F49794419396B4669
:100FE0000A9830221A540A980A7C401C1A54401C51
:100FF0000A900198002801DC302000E031201872AE
:10100000019A0120002A02D0644BD21804E0720039
:101010003A4302D0614A521C0192002D02DC227830
:10102000120703D56A462E205072022000228646FF
:1010300094460CE032033601120F6D1E8B5C02AA3F
:1010400013546246521C401C9446052A01DA002DB6
:10105000F0DC002202AE08E03B0F3F01CB5C521CEB
:101060006D1E3354401C082A01DA002DF4DC23687D
:101070009A0601D511E0401E704504DD3218203A71
:10108000D27F302AF7D0002807DD3218203AD27FED
:101090002E2A02D11A0700D4401E002D03DD3E2265
:1010A0003254401C6D1E497C31540199401C00296A
:1010B00006DA2D21471C315401984042019003E08B
:1010C0002B21471C315401987D21C900884206DB41
:1010D000FFF702F93030F0557F1C019101E06428E0
:1010E00008DB01986421FFF7F7F83030F0557F1CDA
:1010F000019101E00A2806DB01980A21FFF7ECF8CC
:101100003030F0557F1C01980A21FFF7E5F83031A7
:10111000F1550A98A1697F1C7A191018081AA06164
:101120002078C00602D42046FFF785F9216A6E4672
:101130000A980818206204E062683078A168761C7A
:1011400090470A98401E0A90401CF5D12078C006AE
:1011500002D52046FFF76FF902AE09E03078761C21
:101160003E280DD06268A1689047206A401C20622A
:101170007F1EF3D22046FFF774F90DB00320F0BDB7
:10118000206A4019206203E06268A168302090471D
:101190006D1EEDD3F8E700008412000001FCFFFF94
:1011A00010B54369002B02D0C046C04601E0FFF7EE
:1011B0007BF9012010BD1278014624310A7000220B
:1011C0004A700122ECE711680022D243E8E710B52B
:1011D0004369002B02D0C046C04601E0FFF7F6F994
:1011E000012010BD12880146243182840022C2846D
:1011F0000122ECE711680022D243E8E7F8B5164671
:101200000C46054600F04EF80368FF200230C05C33
:10121000012807D0FF2C0FD8185D00280CD0012022
:101220002C70F8BDFF333246214608331868C718C2
:1012300028460023B847F8BD0020C043F8BD01464A
:101240008008081A02091018020A1018020C101857
:10125000C008820012185200891A01E0401C0A39A5
:101260000A29FBD27047754600F0A0FBAE46050088
:1012700069465346C008C000854618B020B5FEF741
:10128000F9FF60BCB64600260027C0C5C0C5C0C572
:10129000C0C5C0C5C0C5C0C5C0C5403D490849009E
:1012A0008D46704710B500F005F8001D10BD00BF59
:1012B0000D0F00000048704720000020F8B51F46C1
:1012C000044601230068DB02032601461840072A72
:1012D00005DB002801D017A506E017A504E00028CB
:1012E00001D016A500E016A5102081432160A06959
:1012F000C01E002FA06101D0401EA0612046FFF754
:101300009AF8002F09D038466268A1689047206A91
:10131000401C2062C01C206206E0206AFAE7626876
:101320002878A1686D1C9047761EF8D22046FFF7FA
:1013300098F8F8BD4E414E006E616E00494E460071
:10134000696E6600F7B516468AB0334878446C4635
:1013500003467C33C06F5A689B680DC42E4878449E
:10136000763003AC0DC80DC43720C00108183721F2
:101370001B30FEF7B1FF05460C46803D1B3C02D5F5
:101380006442012000E000200027099010E0E007FF
:101390000CD00C2020497843794432464C3941180E
:1013A0006846012300F054FA6B4607C364107F1CA3
:1013B000002CECD1184F7F442E3F16E0E80712D0E6
:1013C0002001C0190EC80691089307920068F042E8
:1013D00001D1981908903246012306A903A800F00C
:1013E00037FA03AB07C36D10641C002DE6D10998D2
:1013F000002806D032466946012303A800F07EFA91
:1014000005E001233246694603A800F021FA0A9B51
:1014100007C30DB0F0BD0000200F000003464000E0
:101420000A4610B5400D0BD00121C9070F24A402B4
:1014300000191C0364082143540D2143D20207E024
:1014400000210120F2E7D40F490021435200401E41
:101450000029F8DADB0FDB07184310BDFFB50D4696
:10146000144685B04868516800F05CFE0091019018
:10147000A868A16800F056FE02910390A868616810
:1014800000F050FE029A12188242029201D201200C
:1014900000E00020019A0B18D2180028019202D017
:1014A0008A4202D903E08A4201D2012000E00020F2
:1014B0000099081800906868A16800F033FE029A4D
:1014C00012188242029201D2012000E00020019A0B
:1014D0000B18D2180028019202D08A4202D903E0E8
:1014E0008A4201D2012000E00020009908180090F3
:1014F0002868216840004900400849084018FA4916
:10150000471814E001994000C90F08430090019862
:1015100002994000C90F08430190029803994000C6
:10152000C90F08430290039840007F1E0390009863
:101530000028E7DA0898002801D0EC4E00E00026E9
:10154000B74201DA012000E00020002804902AD0F0
:10155000F71BF806C00E15D0029B2021091A039A2A
:101560008B401A430392029A019BC2408B401A435C
:101570000292019A009BC2408B4000991A4301924B
:10158000C14000917B110DD06F460320C11A03D5D5
:1015900000218200B95003E08A008100BA587A50D5
:1015A000401EF3D5374603980299002800D0012049
:1015B000014308980291002808460CD0002800D06A
:1015C00001200199019A490508430121D20AC90263
:1015D000D202019200E001210E9B0122D207012BD1
:1015E00002D0002B03D013E0002807D120E0904266
:1015F00004D890420CD1019B0B4209D0019B591891
:10160000019105D10099491C009101D17F1C0092E4
:1016100000280DD0102108460020C046049800285C
:1016200006D00F98002803D0082108460020C046A5
:1016300028682168019B009A4840C10F0598C90796
:1016400039430EC009B0F0BDFFB587B0099A0898BC
:101650000899536892684068896896460022039307
:1016600017469446089A12685300099A5B08126854
:10167000520052089A1A9E4BD4180A9A002A01D096
:10168000352200E0402206920022012315460492F2
:10169000DB07059324E0002D05D175460346039E24
:1016A0004D1BB34109D375466646039B491B049DF8
:1016B0009841059B7519AC465F4163463B4308D092
:1016C000059B049EDD0776082E435B080496059370
:1016D00001E0521E641EC50FED0749184041521C1F
:1016E000069B9A42D7DB002D04D17546039A6B1AEC
:1016F000824101D203200CE0039A0B466B4042402A
:10170000134303D0014303D0012002E0022000E094
:101710000020614601910021009702910A99002959
:1017200005D0614640020143704B019102E0800701
:10173000002302909C4201DA012000E00020070013
:101740003AD01A1BD006C00E15D0029D2021019C54
:10175000091AC5408C402543029C8C4000D00124CE
:101760002543019C0295009DC4408D4000992C4367
:101770000194C140009154111DD06D4602210022F8
:1017800002290CD10320001B07E0002804DB86009F
:10179000AE59002E00D00122401C0328F5DB081BA7
:1017A00002D588002A5004E08000285810438A009F
:1017B000A850491EE3D51C460A98002802980CD070
:1017C000002800D001200199019A49050843012110
:1017D000D20AC902D202019200E00121109B01222B
:1017E000D207012B02D0002B03D013E0002807D131
:1017F0001FE0904204D890420CD1019B0B4209D0CB
:10180000019B5918019105D10099491C009101D102
:10181000641C009200280CD0102108460020C0460D
:10182000002F06D01198002803D008210846002078
:10183000C04608980999019A009B006809684840C9
:10184000C10F0798C907214382600AC00BB0F0BDE1
:1018500000B585B0019300920A460146002302A814
:10186000FFF7FCFD02A807C805B000BDFFB50A469A
:101870001F4685B00799019301230091014602A8F4
:10188000FFF7ECFD02990398049ECA0F4900D207A6
:1018900000920F22490892028C1A0021002800DBD6
:1018A0000C46450013486D08844214D3079A002A59
:1018B00004DA441E0026104DF64302E004460D46AD
:1018C0000E46102108460020C046002F03D00421F8
:1018D00008460020C0462005E90A0843009908434D
:1018E0006905F20A1143ADE602C0FFFF013C0000AA
:1018F000FF3F0000FF070000FFFFFF7F00B585B03E
:10190000019300920A460146002302A8FFF79CFEBD
:1019100002A807C8A8E7FFB50A461F4685B0079981
:10192000019301230091014602A8FFF78DFE029961
:101930000398049ECA0F4900D20700920F2249085B
:1019400092028C1A0021002800DB0C464500114849
:101950006D08844214D3079A002A04DA441E002634
:101960000D4DF64302E004460D460E461021084692
:101970000020C046002F03D0042108460020C046A6
:101980002005E90A0843009908436905F20A114352
:1019900058E60000FF070000FFFFFF7F10B5044678
:1019A000C046C0462046FEF755FC10BD00487047B3
:1019B00000000020024670B50A4392072AD11E4D4E
:1019C000EE0104C808C9541B9443344017D0D0B268
:1019D000D9B2401A2106014310D190B299B2401AEF
:1019E000210401430AD110021902000A090A401A0F
:1019F0002102014302D1100E190E401A70BD9A4205
:101A0000DFD010BA19BA884201D9012070BD002078
:101A1000C04370BD02780B78401C491C002A09D0D5
:101A20009A4207D102780B78401C491C002A01D049
:101A30009A42EFD0D01A70BD01010101014918206E
:101A4000ABBEFEE72600020070470000F0B582B092
:101A50000520010708682A4D284008600868294CBD
:101A60002040086008680126F305184308600868EC
:101A7000720610430860244901910868F702009734
:101A8000B843086008683703B843086000990198B4
:101A900000680843019908600868384308601B49DA
:101AA0000868284008600868204008600868B70592
:101AB00038430860086836063043086014490868EF
:101AC00028400860086820400860086818430860DB
:101AD0000868104308600F4908680F2213039843F1
:101AE00008600868120490430860086803225303E2
:101AF00018430860086852041043086002B0F0BD43
:101B0000FFFF3FFFFFFFFFFC040000500C000050F0
:101B1000080000502400005081B001466846017062
:101B2000007801228240034908681043086001B030
:101B30007047C0463410024082B001A90870FFE728
:101B4000B14800680004002801D5FFE7F8E7AF4975
:101B500000910020086008680122D30298430860C1
:101B6000086878231843086008689302984308605F
:101B70000868FF231B04984308600868530418434F
:101B800008600868530698430860086818430860AE
:101B90000868520390430860086810430860FFE734
:101BA00099480068800700280DD4FFE79648006830
:101BB000C006002806D5FFE79649086810221043A2
:101BC000086029E0ECE7924900200860FFE78E48B2
:101BD0000068800700280DD4FFE78B480068C00626
:101BE000002806D5FFE78B490868102210430860DB
:101BF00012E0ECE701A8007885490860FFE7824819
:101C000000688006002801D4FFE7F8E781490868EA
:101C1000202210430860FFE702B0704782B001A99C
:101C20000870FFE7784800680004002801D5FFE746
:101C3000F8E7764900910020086008680122D30285
:101C4000984308600868782318430860086893027E
:101C5000984308600868FF231B04984308600868DD
:101C600053041843086008685306984308600868DE
:101C700018430860086852039043086008681043DE
:101C80000860FFE760480068800700280DD4FFE780
:101C90005D480068C006002806D5FFE75D49086872
:101CA00010221043086029E0ECE759494020086001
:101CB000FFE755480068800700280DD4FFE7524829
:101CC0000068C006002806D5FFE7524908681022C0
:101CD0001043086012E0ECE701A800784C49086066
:101CE000FFE7494800688006002801D4FFE7F8E7CD
:101CF00048490868202210430860FFE702B0704797
:101D000083B00290FFE7404800680004002801D536
:101D1000FFE7F8E73D4900910020086008680122CC
:101D2000D30298430860086878231843086008685D
:101D30009302984308600868FF231B0498430860D7
:101D4000086807231B041843086008685306984373
:101D500008600868184308600868520390430860E8
:101D6000086810430860FFE72748006880070028DC
:101D70000DD4FFE724480068C006002806D5FFE719
:101D8000244908681022104308603AE0ECE7204933
:101D90004020086001A900200870FFE701A8007832
:101DA000052820DCFFE7FFE71748006880070028C8
:101DB0000DD4FFE714480068C006002806D5FFE7E9
:101DC000144908681022104308601AE0ECE70298F2
:101DD00001A90978405C0E490860FFE70198401CA2
:101DE00001A90870DAE7FFE70748006880060028C5
:101DF00001D4FFE7F8E7074908682022104308608C
:101E0000FFE703B07047C046185800400458004030
:101E1000285800401C58004070B51E49086801222F
:101E2000904308601C4C20680F231D07A8432060C6
:101E3000206803252D072843206020681D05A8433E
:101E40002060206895052843206020681D04A84371
:101E5000206020685504284320602068FF252E025A
:101E6000B04320602068C3263602304320602068DB
:101E7000A84320602068C725284320600868140311
:101E80002043086008681B029843086008681043F4
:101E9000086070BD005800401058004003490868B1
:101EA00001229205104308607047C0463C10024072
:101EB00080B582B0014601A801700078FFF73CFEB2
:101EC00002B080BD80B582B0014601A801700078E3
:101ED000FFF732FE02B080BD80B584B003A90020B8
:101EE0000870FFE703A80078072824DCFFE70398C1
:101EF000B030C0B200F089F800200190FFF71CFE5E
:101F00001020FFF719FE019802A90870FFE702A848
:101F100000787F2809DCFFE70020FFF77FFEFFE75E
:101F20000298401C02A90870F1E7FFE70398401CE3
:101F300003A90870D6E704B080BD80B582B0014621
:101F400001A801700078FFF7F7FD02B080BD80B5F1
:101F500082B00190FFE701980078002808D0FFE7E1
:101F60000198007800F006F80198401C0190F2E713
:101F700002B080BD80B582B0014601A80170007832
:101F8000202805DBFFE701A800787F2804DBFFE7B6
:101F900001A920200870FFE701A801780620484326
:101FA00003494018C038FFF7ABFE02B080BDC04601
:101FB0000423000880B586B005AA107004A801703B
:101FC0000078C10803A80170059902AA1170007871
:101FD000002818D4FFE703A80078072813DCFFE7E0
:101FE0000398B030C0B2FFF7A7FD02A801900078B7
:101FF0000F210840FFF7A0FD01980078000910307C
:10200000FFF79AFDFFE706B080BD80B582B00146BC
:1020100001A801700078FFF78FFD02B080BD0000BD
:10202000094908680122120210430860FFE70648C8
:1020300000684005002801D4FFE7F8E70349086875
:1020400007229043086070470010024008100240C9
:10205000704782B0019000200090FFE70098019A3D
:102060007D2149015143884205D2FFE7FFE70098EF
:10207000401C0090F2E702B07047000080B592B0BB
:102080000020029011900390FFF7CAFF0298FFF71B
:1020900043FDFFF7DBFCFFF701FFFFF7BDFE642008
:1020A000FFF7D7FFAE20FFF748FF8D20FFF745FF72
:1020B0001420FFF742FF2020FFF7FAFE0298FFF7F7
:1020C00001FFA420FFF739FFA620FFF736FFFFF737
:1020D00003FFAF20FFF731FF0A20FFF7BAFFFFE74A
:1020E000FFF7FAFE00200390FFE70398C0087C2862
:1020F00012D8FFE700210846FFF75CFF039A084962
:1021000004A80190FEF7C8F80198FFF720FFFFE749
:102110000398401C0390E8E700200390E0E7C046E6
:102120003E250008F8B5040C8BB2264682B25E4309
:10213000104658430D0C370C360400218019164602
:1021400079416E43370C36048019264679416E4337
:102150008919F8BD4900CA020243100000D00420CA
:102160004A0D01D001221043044A490D914201D188
:1021700002210843012800D105207047FF07000015
:1021800030380A2801D20120704700207047000033
:1021900010B500290AD00878002807D005487844EF
:1021A000FFF708FC002801D0002010BD0248784449
:1021B00010BD0000B6030000AE03000010B50029FA
:1021C0000AD00878002807D005487844FFF7F2FBCA
:1021D000002801D0002010BD0248784410BD000046
:1021E000A60300009E03000003B40248784484461E
:1021F00003BC604761EAFFFF03B4024878448446A9
:1022000003BC6047C9ECFFFF0000000000000000B5
:10221000303132333435363738394142434445461C
:102220004030580030313233343536373839616216
:102230006364656640307800040000080000000018
:102240000000000200010000103031323334353616
:1022500037383961626364656678700030313233D3
:1022600034353637383941424344454658500000EA
:1022700002400000000000A0000000000540000037
:10228000000000C8000000000C4000000000409C5E
:1022900000000000194000000020BCBE000000004B
:1022A00034400000BFC91B8E00000004B540000090
:1022B000504BCFD06607E2CF010000006C41000018
:1022C0003E8251AADFEEA73401000000D94200008F
:1022D000DCB5A0E23A301F97FFFFFFFFB4450000D6
:1022E000FD25A0C8E9A3C14FFFFFFFFFFF3F00008E
:1022F0000000008000000000FF3F000000000080A0
:102300000000000000000000000000005F0000006E
:10231000000700070000147F147F1400242A7F2A7E
:10232000120023130864620036495522500000054C
:1023300003000000001C224100000041221C00009C
:1023400014083E08140008083E0808000050300039
:102350000000080808080800006060000000201065
:10236000080402003E5149453E0000427F40000003
:102370004261514946002141454B31001814127FFA
:1023800010002745454539003C4A49493000017154
:1023900009050300364949493600064949291E0006
:1023A00000363600000000563600000008142241B6
:1023B0000000141414141400004122140800020137
:1023C00051090600324979413E007E1111117E000B
:1023D0007F49494936003E41414122007F41412227
:1023E0001C007F49494941007F09090901003E411C
:1023F00049497A007F0808087F0000417F410000BA
:102400002040413F01007F08142241007F404040AE
:1024100040007F0204027F007F0408107F003E41DD
:1024200041413E007F09090906003E4151215E00FD
:102430007F091929460046494949310001017F01B8
:1024400001003F4040403F001F2040201F007F20F0
:1024500018207F0063140814630003047804030049
:10246000615149454300007F4141000002040810CA
:1024700020000041417F00000402010204004040AE
:1024800040404000000102040000205454547800F1
:102490007F48444438003844444420003844444889
:1024A0007F00385454541800087E090102000C5271
:1024B00052523E007F080404780000447D40000032
:1024C0002040443D00007F102844000000417F4030
:1024D00000007C04180478007C0804047800384468
:1024E000444438007C1414140800081414187C00A8
:1024F0007C0804040800485454542000043F44401D
:1025000020003C4040207C001C2040201C003C401F
:1025100030403C004428102844000C5050503C00EF
:102520004464544C440000083641000000007F0021
:102530000000004136080000080408100800257556
:102540000000000080260008000000206006000057
:10255000200100081C00000043000000F8FFFFFFFE
:102560000C0000000E0000000F0000002E00000014
:102570001001000043000000F8FFFFFF0040404052
:102580004040404040404141414141404040404046
:1025900040404040404040404040404040050202F2
:1025A00002020202020202020202020202202020B1
:1025B000202020202020200202020202020290900D
:1025C000909090901010101010101010101010100B
:1025D000101010101010101002020202020288885F
:1025E000888888880808080808080808080808086B
:1025F0000808080808080808020202024000000053
:1026000000000000000000000000000000000000CA
:1026100000000000000000000000000000000000BA
:1026200000000000000000000000000000000000AA
:10263000000000000000000000000000000000009A
:10264000000000000000000000000000000000008A
:10265000000000000000000000000000000000007A
:10266000000000000000000000000000000000006A
:10267000000000000000000000000000000000005A
:04000005080000C12E
:00000001FF
